{
  "_format": "hh-sol-artifact-1",
  "contractName": "VibeEscrow",
  "sourceName": "contracts/VibeEscrow.sol",
  "abi": [
    {
      "inputs": [
        {
          "internalType": "address",
          "name": "_usdcAddress",
          "type": "address"
        },
        {
          "internalType": "address",
          "name": "_feeCollector",
          "type": "address"
        },
        {
          "internalType": "address",
          "name": "_defaultArbiter",
          "type": "address"
        }
      ],
      "stateMutability": "nonpayable",
      "type": "constructor"
    },
    {
      "inputs": [
        {
          "internalType": "address",
          "name": "owner",
          "type": "address"
        }
      ],
      "name": "OwnableInvalidOwner",
      "type": "error"
    },
    {
      "inputs": [
        {
          "internalType": "address",
          "name": "account",
          "type": "address"
        }
      ],
      "name": "OwnableUnauthorizedAccount",
      "type": "error"
    },
    {
      "inputs": [],
      "name": "ReentrancyGuardReentrantCall",
      "type": "error"
    },
    {
      "anonymous": false,
      "inputs": [
        {
          "indexed": true,
          "internalType": "bytes32",
          "name": "escrowId",
          "type": "bytes32"
        }
      ],
      "name": "EscrowCancelled",
      "type": "event"
    },
    {
      "anonymous": false,
      "inputs": [
        {
          "indexed": true,
          "internalType": "bytes32",
          "name": "escrowId",
          "type": "bytes32"
        },
        {
          "indexed": true,
          "internalType": "address",
          "name": "expert",
          "type": "address"
        },
        {
          "indexed": false,
          "internalType": "uint256",
          "name": "amount",
          "type": "uint256"
        }
      ],
      "name": "EscrowCompleted",
      "type": "event"
    },
    {
      "anonymous": false,
      "inputs": [
        {
          "indexed": true,
          "internalType": "bytes32",
          "name": "escrowId",
          "type": "bytes32"
        },
        {
          "indexed": true,
          "internalType": "address",
          "name": "asker",
          "type": "address"
        },
        {
          "indexed": true,
          "internalType": "address",
          "name": "expert",
          "type": "address"
        },
        {
          "indexed": false,
          "internalType": "uint256",
          "name": "amount",
          "type": "uint256"
        },
        {
          "indexed": false,
          "internalType": "string",
          "name": "question",
          "type": "string"
        }
      ],
      "name": "EscrowCreated",
      "type": "event"
    },
    {
      "anonymous": false,
      "inputs": [
        {
          "indexed": true,
          "internalType": "bytes32",
          "name": "escrowId",
          "type": "bytes32"
        },
        {
          "indexed": true,
          "internalType": "address",
          "name": "disputedBy",
          "type": "address"
        }
      ],
      "name": "EscrowDisputed",
      "type": "event"
    },
    {
      "anonymous": false,
      "inputs": [
        {
          "indexed": true,
          "internalType": "bytes32",
          "name": "escrowId",
          "type": "bytes32"
        },
        {
          "indexed": true,
          "internalType": "address",
          "name": "asker",
          "type": "address"
        },
        {
          "indexed": false,
          "internalType": "uint256",
          "name": "amount",
          "type": "uint256"
        }
      ],
      "name": "EscrowRefunded",
      "type": "event"
    },
    {
      "anonymous": false,
      "inputs": [
        {
          "indexed": true,
          "internalType": "address",
          "name": "previousOwner",
          "type": "address"
        },
        {
          "indexed": true,
          "internalType": "address",
          "name": "newOwner",
          "type": "address"
        }
      ],
      "name": "OwnershipTransferred",
      "type": "event"
    },
    {
      "inputs": [
        {
          "internalType": "bytes32",
          "name": "escrowId",
          "type": "bytes32"
        }
      ],
      "name": "autoCompleteEscrow",
      "outputs": [],
      "stateMutability": "nonpayable",
      "type": "function"
    },
    {
      "inputs": [
        {
          "internalType": "bytes32",
          "name": "escrowId",
          "type": "bytes32"
        }
      ],
      "name": "cancelEscrow",
      "outputs": [],
      "stateMutability": "nonpayable",
      "type": "function"
    },
    {
      "inputs": [
        {
          "internalType": "bytes32",
          "name": "escrowId",
          "type": "bytes32"
        }
      ],
      "name": "completeEscrow",
      "outputs": [],
      "stateMutability": "nonpayable",
      "type": "function"
    },
    {
      "inputs": [
        {
          "internalType": "address",
          "name": "expert",
          "type": "address"
        },
        {
          "internalType": "uint256",
          "name": "amount",
          "type": "uint256"
        },
        {
          "internalType": "string",
          "name": "question",
          "type": "string"
        },
        {
          "internalType": "string",
          "name": "service",
          "type": "string"
        },
        {
          "internalType": "bytes32",
          "name": "escrowId",
          "type": "bytes32"
        }
      ],
      "name": "createEscrow",
      "outputs": [],
      "stateMutability": "nonpayable",
      "type": "function"
    },
    {
      "inputs": [],
      "name": "defaultArbiter",
      "outputs": [
        {
          "internalType": "address",
          "name": "",
          "type": "address"
        }
      ],
      "stateMutability": "view",
      "type": "function"
    },
    {
      "inputs": [
        {
          "internalType": "bytes32",
          "name": "escrowId",
          "type": "bytes32"
        }
      ],
      "name": "disputeEscrow",
      "outputs": [],
      "stateMutability": "nonpayable",
      "type": "function"
    },
    {
      "inputs": [
        {
          "internalType": "bytes32",
          "name": "",
          "type": "bytes32"
        }
      ],
      "name": "escrows",
      "outputs": [
        {
          "internalType": "bytes32",
          "name": "id",
          "type": "bytes32"
        },
        {
          "internalType": "address",
          "name": "asker",
          "type": "address"
        },
        {
          "internalType": "address",
          "name": "expert",
          "type": "address"
        },
        {
          "internalType": "uint256",
          "name": "amount",
          "type": "uint256"
        },
        {
          "internalType": "uint256",
          "name": "platformFee",
          "type": "uint256"
        },
        {
          "internalType": "string",
          "name": "question",
          "type": "string"
        },
        {
          "internalType": "string",
          "name": "service",
          "type": "string"
        },
        {
          "internalType": "enum VibeEscrow.EscrowStatus",
          "name": "status",
          "type": "uint8"
        },
        {
          "internalType": "uint256",
          "name": "createdAt",
          "type": "uint256"
        },
        {
          "internalType": "uint256",
          "name": "expiresAt",
          "type": "uint256"
        },
        {
          "internalType": "address",
          "name": "arbiter",
          "type": "address"
        }
      ],
      "stateMutability": "view",
      "type": "function"
    },
    {
      "inputs": [],
      "name": "feeCollector",
      "outputs": [
        {
          "internalType": "address",
          "name": "",
          "type": "address"
        }
      ],
      "stateMutability": "view",
      "type": "function"
    },
    {
      "inputs": [
        {
          "internalType": "bytes32",
          "name": "escrowId",
          "type": "bytes32"
        }
      ],
      "name": "getEscrow",
      "outputs": [
        {
          "components": [
            {
              "internalType": "bytes32",
              "name": "id",
              "type": "bytes32"
            },
            {
              "internalType": "address",
              "name": "asker",
              "type": "address"
            },
            {
              "internalType": "address",
              "name": "expert",
              "type": "address"
            },
            {
              "internalType": "uint256",
              "name": "amount",
              "type": "uint256"
            },
            {
              "internalType": "uint256",
              "name": "platformFee",
              "type": "uint256"
            },
            {
              "internalType": "string",
              "name": "question",
              "type": "string"
            },
            {
              "internalType": "string",
              "name": "service",
              "type": "string"
            },
            {
              "internalType": "enum VibeEscrow.EscrowStatus",
              "name": "status",
              "type": "uint8"
            },
            {
              "internalType": "uint256",
              "name": "createdAt",
              "type": "uint256"
            },
            {
              "internalType": "uint256",
              "name": "expiresAt",
              "type": "uint256"
            },
            {
              "internalType": "address",
              "name": "arbiter",
              "type": "address"
            }
          ],
          "internalType": "struct VibeEscrow.Escrow",
          "name": "",
          "type": "tuple"
        }
      ],
      "stateMutability": "view",
      "type": "function"
    },
    {
      "inputs": [],
      "name": "owner",
      "outputs": [
        {
          "internalType": "address",
          "name": "",
          "type": "address"
        }
      ],
      "stateMutability": "view",
      "type": "function"
    },
    {
      "inputs": [],
      "name": "platformFeeBps",
      "outputs": [
        {
          "internalType": "uint256",
          "name": "",
          "type": "uint256"
        }
      ],
      "stateMutability": "view",
      "type": "function"
    },
    {
      "inputs": [],
      "name": "renounceOwnership",
      "outputs": [],
      "stateMutability": "nonpayable",
      "type": "function"
    },
    {
      "inputs": [
        {
          "internalType": "bytes32",
          "name": "escrowId",
          "type": "bytes32"
        },
        {
          "internalType": "bool",
          "name": "favorExpert",
          "type": "bool"
        }
      ],
      "name": "resolveDispute",
      "outputs": [],
      "stateMutability": "nonpayable",
      "type": "function"
    },
    {
      "inputs": [
        {
          "internalType": "address",
          "name": "newArbiter",
          "type": "address"
        }
      ],
      "name": "setDefaultArbiter",
      "outputs": [],
      "stateMutability": "nonpayable",
      "type": "function"
    },
    {
      "inputs": [
        {
          "internalType": "address",
          "name": "newCollector",
          "type": "address"
        }
      ],
      "name": "setFeeCollector",
      "outputs": [],
      "stateMutability": "nonpayable",
      "type": "function"
    },
    {
      "inputs": [
        {
          "internalType": "uint256",
          "name": "newFeeBps",
          "type": "uint256"
        }
      ],
      "name": "setPlatformFee",
      "outputs": [],
      "stateMutability": "nonpayable",
      "type": "function"
    },
    {
      "inputs": [],
      "name": "timeoutPeriod",
      "outputs": [
        {
          "internalType": "uint256",
          "name": "",
          "type": "uint256"
        }
      ],
      "stateMutability": "view",
      "type": "function"
    },
    {
      "inputs": [
        {
          "internalType": "address",
          "name": "newOwner",
          "type": "address"
        }
      ],
      "name": "transferOwnership",
      "outputs": [],
      "stateMutability": "nonpayable",
      "type": "function"
    },
    {
      "inputs": [],
      "name": "usdc",
      "outputs": [
        {
          "internalType": "contract IERC20",
          "name": "",
          "type": "address"
        }
      ],
      "stateMutability": "view",
      "type": "function"
    }
  ],
  "bytecode": "0x60a060405260fa6003556202a3006006553480156200001d57600080fd5b5060405162001f9838038062001f9883398101604081905262000040916200011b565b33806200006757604051631e4fbdf760e01b81526000600482015260240160405180910390fd5b6200007281620000ae565b50600180556001600160a01b03928316608052600480549284166001600160a01b03199384161790556005805491909316911617905562000165565b600080546001600160a01b038381166001600160a01b0319831681178455604051919092169283917f8be0079c531659141344cd1fd0a4f28419497f9722a3daafe3b4186f6b6457e09190a35050565b80516001600160a01b03811681146200011657600080fd5b919050565b6000806000606084860312156200013157600080fd5b6200013c84620000fe565b92506200014c60208501620000fe565b91506200015c60408501620000fe565b90509250925092565b608051611de6620001b260003960008181610199015281816103d5015281816104b5015281816108b20152818161099201528181610acf01528181610d4d01526114100152611de66000f3fe608060405234801561001057600080fd5b50600436106101215760003560e01c80638da5cb5b116100ad578063c415b95c11610071578063c415b95c14610267578063cfd245221461027a578063ee5e3b811461028d578063f023b811146102a0578063f2fde38b146102c057600080fd5b80638da5cb5b1461020a578063a42dce801461021b578063b01b5cde1461022e578063b67a263714610241578063bbdf72431461025457600080fd5b80633e413bee116100f45780633e413bee1461019457806343a0e3e6146101d3578063668a2602146101e65780636cea6b82146101f9578063715018a61461020257600080fd5b8063055418251461012657806312e8e2c31461013b57806322dcd13e1461014e5780632d83549c1461016a575b600080fd5b61013961013436600461180c565b6102d3565b005b61013961014936600461180c565b6105b8565b61015760035481565b6040519081526020015b60405180910390f35b61017d61017836600461180c565b61060f565b6040516101619b9a999897969594939291906118a3565b6101bb7f000000000000000000000000000000000000000000000000000000000000000081565b6040516001600160a01b039091168152602001610161565b6101396101e136600461193a565b610790565b6101396101f43660046119cf565b610bd4565b61015760065481565b610139611043565b6000546001600160a01b03166101bb565b610139610229366004611a62565b611057565b61013961023c36600461180c565b6110cb565b6005546101bb906001600160a01b031681565b610139610262366004611a62565b611162565b6004546101bb906001600160a01b031681565b61013961028836600461180c565b6111d4565b61013961029b36600461180c565b6112cd565b6102b36102ae36600461180c565b6114ee565b6040516101619190611a84565b6101396102ce366004611a62565b61172a565b6102db611765565b600081815260026020526040902060018101546001600160a01b0316331461034a5760405162461bcd60e51b815260206004820152601760248201527f4f6e6c792061736b65722063616e20636f6d706c65746500000000000000000060448201526064015b60405180910390fd5b6000600782015460ff1660048111156103655761036561186b565b146103825760405162461bcd60e51b815260040161034190611b58565b60078101805460ff19166001179055600481015460038201546000916103a791611b99565b600283015460405163a9059cbb60e01b81526001600160a01b039182166004820152602481018390529192507f0000000000000000000000000000000000000000000000000000000000000000169063a9059cbb906044016020604051808303816000875af115801561041e573d6000803e3d6000fd5b505050506040513d601f19601f820116820180604052508101906104429190611bb2565b6104875760405162461bcd60e51b8152602060048201526016602482015275115e1c195c9d081d1c985b9cd9995c8819985a5b195960521b6044820152606401610341565b600480548382015460405163a9059cbb60e01b81526001600160a01b039283169381019390935260248301527f0000000000000000000000000000000000000000000000000000000000000000169063a9059cbb906044016020604051808303816000875af11580156104fe573d6000803e3d6000fd5b505050506040513d601f19601f820116820180604052508101906105229190611bb2565b6105645760405162461bcd60e51b8152602060048201526013602482015272119959481d1c985b9cd9995c8819985a5b1959606a1b6044820152606401610341565b60028201546040518281526001600160a01b039091169084907f49c39d96c5edb672b15a37e384d9bbef26585197d39e4c3f7b4b34c3363565179060200160405180910390a350506105b560018055565b50565b6105c061178f565b6103e881111561060a5760405162461bcd60e51b81526020600482015260156024820152744665652063616e6e6f74206578636565642031302560581b6044820152606401610341565b600355565b600260208190526000918252604090912080546001820154928201546003830154600484015460058501805494966001600160a01b03908116969416949293919261065990611bcf565b80601f016020809104026020016040519081016040528092919081815260200182805461068590611bcf565b80156106d25780601f106106a7576101008083540402835291602001916106d2565b820191906000526020600020905b8154815290600101906020018083116106b557829003601f168201915b5050505050908060060180546106e790611bcf565b80601f016020809104026020016040519081016040528092919081815260200182805461071390611bcf565b80156107605780601f1061073557610100808354040283529160200191610760565b820191906000526020600020905b81548152906001019060200180831161074357829003601f168201915b50505050600783015460088401546009850154600a90950154939460ff909216939092506001600160a01b03168b565b610798611765565b6000828152600260205260409020600a8101546001600160a01b031633146108025760405162461bcd60e51b815260206004820152601860248201527f4f6e6c7920617262697465722063616e207265736f6c766500000000000000006044820152606401610341565b6002600782015460ff16600481111561081d5761081d61186b565b146108595760405162461bcd60e51b815260206004820152600c60248201526b139bdd08191a5cdc1d5d195960a21b6044820152606401610341565b8115610a8d5760078101805460ff191660011790556004810154600382015460009161088491611b99565b600283015460405163a9059cbb60e01b81526001600160a01b039182166004820152602481018390529192507f0000000000000000000000000000000000000000000000000000000000000000169063a9059cbb906044016020604051808303816000875af11580156108fb573d6000803e3d6000fd5b505050506040513d601f19601f8201168201806040525081019061091f9190611bb2565b6109645760405162461bcd60e51b8152602060048201526016602482015275115e1c195c9d081d1c985b9cd9995c8819985a5b195960521b6044820152606401610341565b600480548382015460405163a9059cbb60e01b81526001600160a01b039283169381019390935260248301527f0000000000000000000000000000000000000000000000000000000000000000169063a9059cbb906044016020604051808303816000875af11580156109db573d6000803e3d6000fd5b505050506040513d601f19601f820116820180604052508101906109ff9190611bb2565b610a415760405162461bcd60e51b8152602060048201526013602482015272119959481d1c985b9cd9995c8819985a5b1959606a1b6044820152606401610341565b60028201546040518281526001600160a01b039091169085907f49c39d96c5edb672b15a37e384d9bbef26585197d39e4c3f7b4b34c3363565179060200160405180910390a350610bc6565b60078101805460ff1916600390811790915560018201549082015460405163a9059cbb60e01b81526001600160a01b03928316600482015260248101919091527f00000000000000000000000000000000000000000000000000000000000000009091169063a9059cbb906044016020604051808303816000875af1158015610b1a573d6000803e3d6000fd5b505050506040513d601f19601f82011682018060405250810190610b3e9190611bb2565b610b7a5760405162461bcd60e51b815260206004820152600d60248201526c1499599d5b990819985a5b1959609a1b6044820152606401610341565b600181015460038201546040519081526001600160a01b039091169084907ffc31a7ddbe933aa6e67f3c98c183fbc87addd2b602fcfb10238d2f85cf0266179060200160405180910390a35b50610bd060018055565b5050565b610bdc611765565b6001600160a01b038716610c235760405162461bcd60e51b815260206004820152600e60248201526d125b9d985b1a5908195e1c195c9d60921b6044820152606401610341565b336001600160a01b03881603610c865760405162461bcd60e51b815260206004820152602260248201527f43616e6e6f742063726561746520657363726f77207769746820796f75727365604482015261363360f11b6064820152608401610341565b60008611610ccb5760405162461bcd60e51b81526020600482015260126024820152710416d6f756e74206d757374206265203e20360741b6044820152606401610341565b6000818152600260205260409020600101546001600160a01b031615610d2b5760405162461bcd60e51b8152602060048201526015602482015274457363726f7720616c72656164792065786973747360581b6044820152606401610341565b6040516323b872dd60e01b8152336004820152306024820152604481018790527f00000000000000000000000000000000000000000000000000000000000000006001600160a01b0316906323b872dd906064016020604051808303816000875af1158015610d9e573d6000803e3d6000fd5b505050506040513d601f19601f82011682018060405250810190610dc29190611bb2565b610e055760405162461bcd60e51b81526020600482015260146024820152731554d110c81d1c985b9cd9995c8819985a5b195960621b6044820152606401610341565b600061271060035488610e189190611c09565b610e229190611c20565b9050604051806101600160405280838152602001336001600160a01b03168152602001896001600160a01b0316815260200188815260200182815260200187878080601f016020809104026020016040519081016040528093929190818152602001838380828437600092019190915250505090825250604080516020601f8801819004810282018101909252868152918101919087908790819084018382808284376000920182905250938552505060209092019150815260200142815260200160065442610ef29190611c42565b8152600580546001600160a01b039081166020938401526000868152600280855260409182902086518155948601516001860180549185166001600160a01b0319928316179055918601519085018054919093169116179055606083015160038301556080830151600483015560a083015190820190610f729082611cba565b5060c08201516006820190610f879082611cba565b5060e082015160078201805460ff19166001836004811115610fab57610fab61186b565b02179055506101008201516008820155610120820151600982015561014090910151600a90910180546001600160a01b0319166001600160a01b0392831617905560405190891690339084907fecfc64e6b5d00db90b689255403357841334dfc94584137e88c526dc65cbb71390611028908c908c908c90611d7a565b60405180910390a45061103a60018055565b50505050505050565b61104b61178f565b61105560006117bc565b565b61105f61178f565b6001600160a01b0381166110a95760405162461bcd60e51b815260206004820152601160248201527024b73b30b634b21031b7b63632b1ba37b960791b6044820152606401610341565b600480546001600160a01b0319166001600160a01b0392909216919091179055565b6110d3611765565b600081815260026020526040812090600782015460ff1660048111156110fb576110fb61186b565b146111185760405162461bcd60e51b815260040161034190611b58565b80600901544210156103825760405162461bcd60e51b8152602060048201526013602482015272151a5b595bdd5d081b9bdd081c995858da1959606a1b6044820152606401610341565b61116a61178f565b6001600160a01b0381166111b25760405162461bcd60e51b815260206004820152600f60248201526e24b73b30b634b21030b93134ba32b960891b6044820152606401610341565b600580546001600160a01b0319166001600160a01b0392909216919091179055565b600081815260026020526040902060018101546001600160a01b0316331480611209575060028101546001600160a01b031633145b6112555760405162461bcd60e51b815260206004820152601860248201527f4f6e6c7920706172746965732063616e206469737075746500000000000000006044820152606401610341565b6000600782015460ff1660048111156112705761127061186b565b1461128d5760405162461bcd60e51b815260040161034190611b58565b60078101805460ff19166002179055604051339083907fccaaba882d50ea23faa59a43ea26f9a73da17d2148dec254bc998b1bd5f94db890600090a35050565b6112d5611765565b600081815260026020526040902060018101546001600160a01b031633146113375760405162461bcd60e51b815260206004820152601560248201527413db9b1e48185cdad95c8818d85b8818d85b98d95b605a1b6044820152606401610341565b6000600782015460ff1660048111156113525761135261186b565b1461136f5760405162461bcd60e51b815260040161034190611b58565b600881015461138090610e10611c42565b42106113ce5760405162461bcd60e51b815260206004820152601a60248201527f43616e6e6f742063616e63656c206166746572203120686f75720000000000006044820152606401610341565b60078101805460ff191660049081179091556001820154600383015460405163a9059cbb60e01b81526001600160a01b039283169381019390935260248301527f0000000000000000000000000000000000000000000000000000000000000000169063a9059cbb906044016020604051808303816000875af1158015611459573d6000803e3d6000fd5b505050506040513d601f19601f8201168201806040525081019061147d9190611bb2565b6114b95760405162461bcd60e51b815260206004820152600d60248201526c1499599d5b990819985a5b1959609a1b6044820152606401610341565b60405182907f642e58efcd0db9e3e5171b8f71a4655b98647c098a6aa596308df9e8037ecc0990600090a2506105b560018055565b604080516101608101825260008082526020820181905291810182905260608082018390526080820183905260a0820181905260c082015260e08101829052610100810182905261012081018290526101408101919091526000828152600260208181526040928390208351610160810185528154815260018201546001600160a01b03908116938201939093529281015490911692820192909252600382015460608201526004820154608082015260058201805491929160a0840191906115b690611bcf565b80601f01602080910402602001604051908101604052809291908181526020018280546115e290611bcf565b801561162f5780601f106116045761010080835404028352916020019161162f565b820191906000526020600020905b81548152906001019060200180831161161257829003601f168201915b5050505050815260200160068201805461164890611bcf565b80601f016020809104026020016040519081016040528092919081815260200182805461167490611bcf565b80156116c15780601f10611696576101008083540402835291602001916116c1565b820191906000526020600020905b8154815290600101906020018083116116a457829003601f168201915b5050509183525050600782015460209091019060ff1660048111156116e8576116e861186b565b60048111156116f9576116f961186b565b81526008820154602082015260098201546040820152600a909101546001600160a01b031660609091015292915050565b61173261178f565b6001600160a01b03811661175c57604051631e4fbdf760e01b815260006004820152602401610341565b6105b5816117bc565b60026001540361178857604051633ee5aeb560e01b815260040160405180910390fd5b6002600155565b6000546001600160a01b031633146110555760405163118cdaa760e01b8152336004820152602401610341565b600080546001600160a01b038381166001600160a01b0319831681178455604051919092169283917f8be0079c531659141344cd1fd0a4f28419497f9722a3daafe3b4186f6b6457e09190a35050565b60006020828403121561181e57600080fd5b5035919050565b6000815180845260005b8181101561184b5760208185018101518683018201520161182f565b506000602082860101526020601f19601f83011685010191505092915050565b634e487b7160e01b600052602160045260246000fd5b6005811061189f57634e487b7160e01b600052602160045260246000fd5b9052565b60006101608d835260018060a01b03808e166020850152808d1660408501528b60608501528a60808501528160a08501526118e08285018b611825565b915083820360c08501526118f4828a611825565b925061190360e0850189611881565b866101008501528561012085015280851661014085015250509c9b505050505050505050505050565b80151581146105b557600080fd5b6000806040838503121561194d57600080fd5b82359150602083013561195f8161192c565b809150509250929050565b80356001600160a01b038116811461198157600080fd5b919050565b60008083601f84011261199857600080fd5b50813567ffffffffffffffff8111156119b057600080fd5b6020830191508360208285010111156119c857600080fd5b9250929050565b600080600080600080600060a0888a0312156119ea57600080fd5b6119f38861196a565b965060208801359550604088013567ffffffffffffffff80821115611a1757600080fd5b611a238b838c01611986565b909750955060608a0135915080821115611a3c57600080fd5b50611a498a828b01611986565b989b979a50959894979596608090950135949350505050565b600060208284031215611a7457600080fd5b611a7d8261196a565b9392505050565b602081528151602082015260006020830151611aab60408401826001600160a01b03169052565b5060408301516001600160a01b03811660608401525060608301516080830152608083015160a083015260a08301516101608060c0850152611af1610180850183611825565b915060c0850151601f198584030160e0860152611b0e8382611825565b92505060e0850151610100611b2581870183611881565b8601516101208681019190915286015161014080870191909152909501516001600160a01b031693019290925250919050565b602080825260119082015270457363726f77206e6f742061637469766560781b604082015260600190565b634e487b7160e01b600052601160045260246000fd5b81810381811115611bac57611bac611b83565b92915050565b600060208284031215611bc457600080fd5b8151611a7d8161192c565b600181811c90821680611be357607f821691505b602082108103611c0357634e487b7160e01b600052602260045260246000fd5b50919050565b8082028115828204841417611bac57611bac611b83565b600082611c3d57634e487b7160e01b600052601260045260246000fd5b500490565b80820180821115611bac57611bac611b83565b634e487b7160e01b600052604160045260246000fd5b601f821115611cb557600081815260208120601f850160051c81016020861015611c925750805b601f850160051c820191505b81811015611cb157828155600101611c9e565b5050505b505050565b815167ffffffffffffffff811115611cd457611cd4611c55565b611ce881611ce28454611bcf565b84611c6b565b602080601f831160018114611d1d5760008415611d055750858301515b600019600386901b1c1916600185901b178555611cb1565b600085815260208120601f198616915b82811015611d4c57888601518255948401946001909101908401611d2d565b5085821015611d6a5787850151600019600388901b60f8161c191681555b5050505050600190811b01905550565b83815260406020820152816040820152818360608301376000818301606090810191909152601f909201601f191601019291505056fea264697066735822122070b312638df2b1fa66b88cf893322d2e37fcf3002148c454cbd38a4504dc84c464736f6c63430008140033",
  "linkReferences": {},
  "deployedLinkReferences": {}
}