{
  "_format": "hh-sol-artifact-1",
  "contractName": "X402Micropayments",
  "sourceName": "contracts/X402.sol",
  "abi": [
    {
      "inputs": [
        {
          "internalType": "address",
          "name": "_usdcAddress",
          "type": "address"
        },
        {
          "internalType": "address",
          "name": "_feeCollector",
          "type": "address"
        }
      ],
      "stateMutability": "nonpayable",
      "type": "constructor"
    },
    {
      "inputs": [
        {
          "internalType": "address",
          "name": "owner",
          "type": "address"
        }
      ],
      "name": "OwnableInvalidOwner",
      "type": "error"
    },
    {
      "inputs": [
        {
          "internalType": "address",
          "name": "account",
          "type": "address"
        }
      ],
      "name": "OwnableUnauthorizedAccount",
      "type": "error"
    },
    {
      "inputs": [],
      "name": "ReentrancyGuardReentrantCall",
      "type": "error"
    },
    {
      "anonymous": false,
      "inputs": [
        {
          "indexed": true,
          "internalType": "address",
          "name": "collector",
          "type": "address"
        },
        {
          "indexed": false,
          "internalType": "uint256",
          "name": "amount",
          "type": "uint256"
        }
      ],
      "name": "FeeCollected",
      "type": "event"
    },
    {
      "anonymous": false,
      "inputs": [
        {
          "indexed": true,
          "internalType": "address",
          "name": "previousOwner",
          "type": "address"
        },
        {
          "indexed": true,
          "internalType": "address",
          "name": "newOwner",
          "type": "address"
        }
      ],
      "name": "OwnershipTransferred",
      "type": "event"
    },
    {
      "anonymous": false,
      "inputs": [
        {
          "indexed": true,
          "internalType": "bytes32",
          "name": "requestId",
          "type": "bytes32"
        },
        {
          "indexed": true,
          "internalType": "address",
          "name": "payer",
          "type": "address"
        },
        {
          "indexed": true,
          "internalType": "address",
          "name": "recipient",
          "type": "address"
        },
        {
          "indexed": false,
          "internalType": "uint256",
          "name": "amount",
          "type": "uint256"
        },
        {
          "indexed": false,
          "internalType": "string",
          "name": "service",
          "type": "string"
        }
      ],
      "name": "PaymentMade",
      "type": "event"
    },
    {
      "anonymous": false,
      "inputs": [
        {
          "indexed": true,
          "internalType": "address",
          "name": "recipient",
          "type": "address"
        },
        {
          "indexed": false,
          "internalType": "uint256",
          "name": "amount",
          "type": "uint256"
        }
      ],
      "name": "PaymentWithdrawn",
      "type": "event"
    },
    {
      "inputs": [
        {
          "internalType": "address",
          "name": "",
          "type": "address"
        }
      ],
      "name": "balances",
      "outputs": [
        {
          "internalType": "uint256",
          "name": "",
          "type": "uint256"
        }
      ],
      "stateMutability": "view",
      "type": "function"
    },
    {
      "inputs": [],
      "name": "emergencyWithdraw",
      "outputs": [],
      "stateMutability": "nonpayable",
      "type": "function"
    },
    {
      "inputs": [],
      "name": "feeCollector",
      "outputs": [
        {
          "internalType": "address",
          "name": "",
          "type": "address"
        }
      ],
      "stateMutability": "view",
      "type": "function"
    },
    {
      "inputs": [
        {
          "internalType": "address",
          "name": "account",
          "type": "address"
        }
      ],
      "name": "getBalance",
      "outputs": [
        {
          "internalType": "uint256",
          "name": "",
          "type": "uint256"
        }
      ],
      "stateMutability": "view",
      "type": "function"
    },
    {
      "inputs": [
        {
          "internalType": "bytes32",
          "name": "requestId",
          "type": "bytes32"
        }
      ],
      "name": "getPayment",
      "outputs": [
        {
          "components": [
            {
              "internalType": "address",
              "name": "payer",
              "type": "address"
            },
            {
              "internalType": "address",
              "name": "recipient",
              "type": "address"
            },
            {
              "internalType": "uint256",
              "name": "amount",
              "type": "uint256"
            },
            {
              "internalType": "string",
              "name": "service",
              "type": "string"
            },
            {
              "internalType": "bytes32",
              "name": "requestId",
              "type": "bytes32"
            },
            {
              "internalType": "uint256",
              "name": "timestamp",
              "type": "uint256"
            },
            {
              "internalType": "bool",
              "name": "withdrawn",
              "type": "bool"
            }
          ],
          "internalType": "struct X402Micropayments.Payment",
          "name": "",
          "type": "tuple"
        }
      ],
      "stateMutability": "view",
      "type": "function"
    },
    {
      "inputs": [],
      "name": "owner",
      "outputs": [
        {
          "internalType": "address",
          "name": "",
          "type": "address"
        }
      ],
      "stateMutability": "view",
      "type": "function"
    },
    {
      "inputs": [
        {
          "internalType": "address",
          "name": "recipient",
          "type": "address"
        },
        {
          "internalType": "uint256",
          "name": "amount",
          "type": "uint256"
        },
        {
          "internalType": "string",
          "name": "service",
          "type": "string"
        },
        {
          "internalType": "bytes32",
          "name": "requestId",
          "type": "bytes32"
        }
      ],
      "name": "payForRequest",
      "outputs": [],
      "stateMutability": "nonpayable",
      "type": "function"
    },
    {
      "inputs": [
        {
          "internalType": "bytes32",
          "name": "",
          "type": "bytes32"
        }
      ],
      "name": "payments",
      "outputs": [
        {
          "internalType": "address",
          "name": "payer",
          "type": "address"
        },
        {
          "internalType": "address",
          "name": "recipient",
          "type": "address"
        },
        {
          "internalType": "uint256",
          "name": "amount",
          "type": "uint256"
        },
        {
          "internalType": "string",
          "name": "service",
          "type": "string"
        },
        {
          "internalType": "bytes32",
          "name": "requestId",
          "type": "bytes32"
        },
        {
          "internalType": "uint256",
          "name": "timestamp",
          "type": "uint256"
        },
        {
          "internalType": "bool",
          "name": "withdrawn",
          "type": "bool"
        }
      ],
      "stateMutability": "view",
      "type": "function"
    },
    {
      "inputs": [],
      "name": "platformFeeBps",
      "outputs": [
        {
          "internalType": "uint256",
          "name": "",
          "type": "uint256"
        }
      ],
      "stateMutability": "view",
      "type": "function"
    },
    {
      "inputs": [],
      "name": "renounceOwnership",
      "outputs": [],
      "stateMutability": "nonpayable",
      "type": "function"
    },
    {
      "inputs": [
        {
          "internalType": "address",
          "name": "newCollector",
          "type": "address"
        }
      ],
      "name": "setFeeCollector",
      "outputs": [],
      "stateMutability": "nonpayable",
      "type": "function"
    },
    {
      "inputs": [
        {
          "internalType": "uint256",
          "name": "newFeeBps",
          "type": "uint256"
        }
      ],
      "name": "setPlatformFee",
      "outputs": [],
      "stateMutability": "nonpayable",
      "type": "function"
    },
    {
      "inputs": [
        {
          "internalType": "address",
          "name": "newOwner",
          "type": "address"
        }
      ],
      "name": "transferOwnership",
      "outputs": [],
      "stateMutability": "nonpayable",
      "type": "function"
    },
    {
      "inputs": [],
      "name": "usdc",
      "outputs": [
        {
          "internalType": "contract IERC20",
          "name": "",
          "type": "address"
        }
      ],
      "stateMutability": "view",
      "type": "function"
    },
    {
      "inputs": [],
      "name": "withdraw",
      "outputs": [],
      "stateMutability": "nonpayable",
      "type": "function"
    },
    {
      "inputs": [
        {
          "internalType": "uint256",
          "name": "amount",
          "type": "uint256"
        }
      ],
      "name": "withdrawAmount",
      "outputs": [],
      "stateMutability": "nonpayable",
      "type": "function"
    }
  ],
  "bytecode": "0x60a060405260fa6004553480156200001657600080fd5b50604051620014bb380380620014bb833981016040819052620000399162000106565b33806200006057604051631e4fbdf760e01b81526000600482015260240160405180910390fd5b6200006b8162000099565b50600180556001600160a01b03918216608052600580546001600160a01b031916919092161790556200013e565b600080546001600160a01b038381166001600160a01b0319831681178455604051919092169283917f8be0079c531659141344cd1fd0a4f28419497f9722a3daafe3b4186f6b6457e09190a35050565b80516001600160a01b03811681146200010157600080fd5b919050565b600080604083850312156200011a57600080fd5b6200012583620000e9565b91506200013560208401620000e9565b90509250929050565b60805161133e6200017d600039600081816101a0015281816103780152818161060e015281816107ed01528181610b1b0152610b92015261133e6000f3fe608060405234801561001057600080fd5b50600436106101005760003560e01c8063715018a611610097578063db2e21bc11610066578063db2e21bc1461022c578063e66eefc814610234578063f2fde38b14610254578063f8b2cb4f1461026757600080fd5b8063715018a6146101ed5780638da5cb5b146101f5578063a42dce8014610206578063c415b95c1461021957600080fd5b806327e235e3116100d357806327e235e3146101735780633ccfd60b146101935780633e413bee1461019b5780634336ffbf146101da57600080fd5b80630562b9f7146101055780630716326d1461011a57806312e8e2c31461014957806322dcd13e1461015c575b600080fd5b610118610113366004610e9c565b610290565b005b61012d610128366004610e9c565b61044a565b6040516101409796959493929190610efb565b60405180910390f35b610118610157366004610e9c565b610521565b61016560045481565b604051908152602001610140565b610165610181366004610f6b565b60036020526000908152604090205481565b610118610578565b6101c27f000000000000000000000000000000000000000000000000000000000000000081565b6040516001600160a01b039091168152602001610140565b6101186101e8366004610f8d565b6106d8565b610118610a75565b6000546001600160a01b03166101c2565b610118610214366004610f6b565b610a87565b6005546101c2906001600160a01b031681565b610118610afb565b610247610242366004610e9c565b610c80565b604051610140919061101c565b610118610262366004610f6b565b610dba565b610165610275366004610f6b565b6001600160a01b031660009081526003602052604090205490565b610298610df5565b600081116102e25760405162461bcd60e51b81526020600482015260126024820152710416d6f756e74206d757374206265203e20360741b60448201526064015b60405180910390fd5b336000908152600360205260409020548111156103385760405162461bcd60e51b8152602060048201526014602482015273496e73756666696369656e742062616c616e636560601b60448201526064016102d9565b33600090815260036020526040812080548392906103579084906110a5565b909155505060405163a9059cbb60e01b8152336004820152602481018290527f00000000000000000000000000000000000000000000000000000000000000006001600160a01b03169063a9059cbb906044016020604051808303816000875af11580156103c9573d6000803e3d6000fd5b505050506040513d601f19601f820116820180604052508101906103ed91906110be565b6104095760405162461bcd60e51b81526004016102d9906110e0565b60405181815233907f84511ecc081974f18e7f3e0dcc19db078b55bbd3852ddd0dd85b3aebb7bf94c29060200160405180910390a261044760018055565b50565b600260208190526000918252604090912080546001820154928201546003830180546001600160a01b03938416959093169391926104879061110e565b80601f01602080910402602001604051908101604052809291908181526020018280546104b39061110e565b80156105005780601f106104d557610100808354040283529160200191610500565b820191906000526020600020905b8154815290600101906020018083116104e357829003601f168201915b50505050600483015460058401546006909401549293909290915060ff1687565b610529610e1f565b6103e88111156105735760405162461bcd60e51b81526020600482015260156024820152744665652063616e6e6f74206578636565642031302560581b60448201526064016102d9565b600455565b610580610df5565b33600090815260036020526040902054806105d65760405162461bcd60e51b81526020600482015260166024820152754e6f2062616c616e636520746f20776974686472617760501b60448201526064016102d9565b33600081815260036020526040808220919091555163a9059cbb60e01b81526004810191909152602481018290526001600160a01b037f0000000000000000000000000000000000000000000000000000000000000000169063a9059cbb906044016020604051808303816000875af1158015610657573d6000803e3d6000fd5b505050506040513d601f19601f8201168201806040525081019061067b91906110be565b6106975760405162461bcd60e51b81526004016102d9906110e0565b60405181815233907f84511ecc081974f18e7f3e0dcc19db078b55bbd3852ddd0dd85b3aebb7bf94c29060200160405180910390a2506106d660018055565b565b6106e0610df5565b6001600160a01b03851661072a5760405162461bcd60e51b8152602060048201526011602482015270125b9d985b1a59081c9958da5c1a595b9d607a1b60448201526064016102d9565b6000841161076f5760405162461bcd60e51b81526020600482015260126024820152710416d6f756e74206d757374206265203e20360741b60448201526064016102d9565b6000818152600260205260409020546001600160a01b0316156107cb5760405162461bcd60e51b815260206004820152601460248201527314995c5d595cdd08185b1c9958591e481c185a5960621b60448201526064016102d9565b6040516323b872dd60e01b8152336004820152306024820152604481018590527f00000000000000000000000000000000000000000000000000000000000000006001600160a01b0316906323b872dd906064016020604051808303816000875af115801561083e573d6000803e3d6000fd5b505050506040513d601f19601f8201168201806040525081019061086291906110be565b61087e5760405162461bcd60e51b81526004016102d9906110e0565b6000612710600454866108919190611148565b61089b919061115f565b905060006108a982876110a5565b90506040518060e00160405280336001600160a01b03168152602001886001600160a01b0316815260200187815260200186868080601f01602080910402602001604051908101604052809392919081815260200183838082843760009201829052509385525050506020808301879052426040808501919091526060938401839052878352600280835292819020855181546001600160a01b03199081166001600160a01b03928316178355938701516001830180549095169116179092558401519181019190915590820151600382019061098690826111e6565b506080820151600482015560a0820151600582015560c0909101516006909101805460ff19169115159190911790556001600160a01b038716600090815260036020526040812080548392906109dd9084906112a6565b90915550506005546001600160a01b031660009081526003602052604081208054849290610a0c9084906112a6565b92505081905550866001600160a01b0316336001600160a01b0316847f9fa44d59a3a89e9de2a3f94f269216624e1360db246c48d0e640b07f43a2901e898989604051610a5b939291906112b9565b60405180910390a45050610a6e60018055565b5050505050565b610a7d610e1f565b6106d66000610e4c565b610a8f610e1f565b6001600160a01b038116610ad95760405162461bcd60e51b815260206004820152601160248201527024b73b30b634b21031b7b63632b1ba37b960791b60448201526064016102d9565b600580546001600160a01b0319166001600160a01b0392909216919091179055565b610b03610e1f565b6040516370a0823160e01b81523060048201526000907f00000000000000000000000000000000000000000000000000000000000000006001600160a01b0316906370a0823190602401602060405180830381865afa158015610b6a573d6000803e3d6000fd5b505050506040513d601f19601f82011682018060405250810190610b8e91906112ef565b90507f00000000000000000000000000000000000000000000000000000000000000006001600160a01b031663a9059cbb610bd16000546001600160a01b031690565b6040516001600160e01b031960e084901b1681526001600160a01b039091166004820152602481018490526044016020604051808303816000875af1158015610c1e573d6000803e3d6000fd5b505050506040513d601f19601f82011682018060405250810190610c4291906110be565b6104475760405162461bcd60e51b815260206004820152600f60248201526e151c985b9cd9995c8819985a5b1959608a1b60448201526064016102d9565b6040805160e0810182526000808252602082018190529181018290526060808201526080810182905260a0810182905260c0810191909152600082815260026020818152604092839020835160e08101855281546001600160a01b039081168252600183015416928101929092529182015492810192909252600381018054606084019190610d0e9061110e565b80601f0160208091040260200160405190810160405280929190818152602001828054610d3a9061110e565b8015610d875780601f10610d5c57610100808354040283529160200191610d87565b820191906000526020600020905b815481529060010190602001808311610d6a57829003601f168201915b5050509183525050600482015460208201526005820154604082015260069091015460ff16151560609091015292915050565b610dc2610e1f565b6001600160a01b038116610dec57604051631e4fbdf760e01b8152600060048201526024016102d9565b61044781610e4c565b600260015403610e1857604051633ee5aeb560e01b815260040160405180910390fd5b6002600155565b6000546001600160a01b031633146106d65760405163118cdaa760e01b81523360048201526024016102d9565b600080546001600160a01b038381166001600160a01b0319831681178455604051919092169283917f8be0079c531659141344cd1fd0a4f28419497f9722a3daafe3b4186f6b6457e09190a35050565b600060208284031215610eae57600080fd5b5035919050565b6000815180845260005b81811015610edb57602081850181015186830182015201610ebf565b506000602082860101526020601f19601f83011685010191505092915050565b6001600160a01b038881168252871660208201526040810186905260e060608201819052600090610f2e90830187610eb5565b60808301959095525060a0810192909252151560c090910152949350505050565b80356001600160a01b0381168114610f6657600080fd5b919050565b600060208284031215610f7d57600080fd5b610f8682610f4f565b9392505050565b600080600080600060808688031215610fa557600080fd5b610fae86610f4f565b945060208601359350604086013567ffffffffffffffff80821115610fd257600080fd5b818801915088601f830112610fe657600080fd5b813581811115610ff557600080fd5b89602082850101111561100757600080fd5b96999598505060200195606001359392505050565b60208152600060018060a01b038084511660208401528060208501511660408401525060408301516060830152606083015160e06080840152611063610100840182610eb5565b9050608084015160a084015260a084015160c084015260c0840151151560e08401528091505092915050565b634e487b7160e01b600052601160045260246000fd5b818103818111156110b8576110b861108f565b92915050565b6000602082840312156110d057600080fd5b81518015158114610f8657600080fd5b6020808252601490820152731554d110c81d1c985b9cd9995c8819985a5b195960621b604082015260600190565b600181811c9082168061112257607f821691505b60208210810361114257634e487b7160e01b600052602260045260246000fd5b50919050565b80820281158282048414176110b8576110b861108f565b60008261117c57634e487b7160e01b600052601260045260246000fd5b500490565b634e487b7160e01b600052604160045260246000fd5b601f8211156111e157600081815260208120601f850160051c810160208610156111be5750805b601f850160051c820191505b818110156111dd578281556001016111ca565b5050505b505050565b815167ffffffffffffffff81111561120057611200611181565b6112148161120e845461110e565b84611197565b602080601f83116001811461124957600084156112315750858301515b600019600386901b1c1916600185901b1785556111dd565b600085815260208120601f198616915b8281101561127857888601518255948401946001909101908401611259565b50858210156112965787850151600019600388901b60f8161c191681555b5050505050600190811b01905550565b808201808211156110b8576110b861108f565b83815260406020820152816040820152818360608301376000818301606090810191909152601f909201601f1916010192915050565b60006020828403121561130157600080fd5b505191905056fea26469706673582212201c44298aaa02f9aa8c7673026424f3888fde16fb6ab53041d5c607836b892e3e64736f6c63430008140033",
  "linkReferences": {},
  "deployedLinkReferences": {}
}