{
  "_format": "hh-sol-artifact-1",
  "contractName": "VIBEArtifacts",
  "sourceName": "contracts/VIBEArtifacts.sol",
  "abi": [
    {
      "inputs": [],
      "stateMutability": "nonpayable",
      "type": "constructor"
    },
    {
      "inputs": [
        {
          "internalType": "address",
          "name": "sender",
          "type": "address"
        },
        {
          "internalType": "uint256",
          "name": "tokenId",
          "type": "uint256"
        },
        {
          "internalType": "address",
          "name": "owner",
          "type": "address"
        }
      ],
      "name": "ERC721IncorrectOwner",
      "type": "error"
    },
    {
      "inputs": [
        {
          "internalType": "address",
          "name": "operator",
          "type": "address"
        },
        {
          "internalType": "uint256",
          "name": "tokenId",
          "type": "uint256"
        }
      ],
      "name": "ERC721InsufficientApproval",
      "type": "error"
    },
    {
      "inputs": [
        {
          "internalType": "address",
          "name": "approver",
          "type": "address"
        }
      ],
      "name": "ERC721InvalidApprover",
      "type": "error"
    },
    {
      "inputs": [
        {
          "internalType": "address",
          "name": "operator",
          "type": "address"
        }
      ],
      "name": "ERC721InvalidOperator",
      "type": "error"
    },
    {
      "inputs": [
        {
          "internalType": "address",
          "name": "owner",
          "type": "address"
        }
      ],
      "name": "ERC721InvalidOwner",
      "type": "error"
    },
    {
      "inputs": [
        {
          "internalType": "address",
          "name": "receiver",
          "type": "address"
        }
      ],
      "name": "ERC721InvalidReceiver",
      "type": "error"
    },
    {
      "inputs": [
        {
          "internalType": "address",
          "name": "sender",
          "type": "address"
        }
      ],
      "name": "ERC721InvalidSender",
      "type": "error"
    },
    {
      "inputs": [
        {
          "internalType": "uint256",
          "name": "tokenId",
          "type": "uint256"
        }
      ],
      "name": "ERC721NonexistentToken",
      "type": "error"
    },
    {
      "inputs": [
        {
          "internalType": "address",
          "name": "owner",
          "type": "address"
        }
      ],
      "name": "OwnableInvalidOwner",
      "type": "error"
    },
    {
      "inputs": [
        {
          "internalType": "address",
          "name": "account",
          "type": "address"
        }
      ],
      "name": "OwnableUnauthorizedAccount",
      "type": "error"
    },
    {
      "anonymous": false,
      "inputs": [
        {
          "indexed": true,
          "internalType": "address",
          "name": "owner",
          "type": "address"
        },
        {
          "indexed": true,
          "internalType": "address",
          "name": "approved",
          "type": "address"
        },
        {
          "indexed": true,
          "internalType": "uint256",
          "name": "tokenId",
          "type": "uint256"
        }
      ],
      "name": "Approval",
      "type": "event"
    },
    {
      "anonymous": false,
      "inputs": [
        {
          "indexed": true,
          "internalType": "address",
          "name": "owner",
          "type": "address"
        },
        {
          "indexed": true,
          "internalType": "address",
          "name": "operator",
          "type": "address"
        },
        {
          "indexed": false,
          "internalType": "bool",
          "name": "approved",
          "type": "bool"
        }
      ],
      "name": "ApprovalForAll",
      "type": "event"
    },
    {
      "anonymous": false,
      "inputs": [
        {
          "indexed": true,
          "internalType": "uint256",
          "name": "tokenId",
          "type": "uint256"
        },
        {
          "indexed": true,
          "internalType": "address",
          "name": "to",
          "type": "address"
        },
        {
          "indexed": false,
          "internalType": "string",
          "name": "uri",
          "type": "string"
        }
      ],
      "name": "ArtifactMinted",
      "type": "event"
    },
    {
      "anonymous": false,
      "inputs": [
        {
          "indexed": false,
          "internalType": "uint256",
          "name": "_fromTokenId",
          "type": "uint256"
        },
        {
          "indexed": false,
          "internalType": "uint256",
          "name": "_toTokenId",
          "type": "uint256"
        }
      ],
      "name": "BatchMetadataUpdate",
      "type": "event"
    },
    {
      "anonymous": false,
      "inputs": [
        {
          "indexed": false,
          "internalType": "uint256",
          "name": "_tokenId",
          "type": "uint256"
        }
      ],
      "name": "MetadataUpdate",
      "type": "event"
    },
    {
      "anonymous": false,
      "inputs": [
        {
          "indexed": true,
          "internalType": "address",
          "name": "previousOwner",
          "type": "address"
        },
        {
          "indexed": true,
          "internalType": "address",
          "name": "newOwner",
          "type": "address"
        }
      ],
      "name": "OwnershipTransferred",
      "type": "event"
    },
    {
      "anonymous": false,
      "inputs": [
        {
          "indexed": true,
          "internalType": "address",
          "name": "from",
          "type": "address"
        },
        {
          "indexed": true,
          "internalType": "address",
          "name": "to",
          "type": "address"
        },
        {
          "indexed": true,
          "internalType": "uint256",
          "name": "tokenId",
          "type": "uint256"
        }
      ],
      "name": "Transfer",
      "type": "event"
    },
    {
      "inputs": [
        {
          "internalType": "address",
          "name": "to",
          "type": "address"
        },
        {
          "internalType": "uint256",
          "name": "tokenId",
          "type": "uint256"
        }
      ],
      "name": "approve",
      "outputs": [],
      "stateMutability": "nonpayable",
      "type": "function"
    },
    {
      "inputs": [
        {
          "internalType": "address",
          "name": "owner",
          "type": "address"
        }
      ],
      "name": "balanceOf",
      "outputs": [
        {
          "internalType": "uint256",
          "name": "",
          "type": "uint256"
        }
      ],
      "stateMutability": "view",
      "type": "function"
    },
    {
      "inputs": [
        {
          "internalType": "address",
          "name": "to",
          "type": "address"
        },
        {
          "internalType": "string[]",
          "name": "uris",
          "type": "string[]"
        }
      ],
      "name": "batchMint",
      "outputs": [
        {
          "internalType": "uint256[]",
          "name": "",
          "type": "uint256[]"
        }
      ],
      "stateMutability": "nonpayable",
      "type": "function"
    },
    {
      "inputs": [
        {
          "internalType": "uint256",
          "name": "tokenId",
          "type": "uint256"
        }
      ],
      "name": "getApproved",
      "outputs": [
        {
          "internalType": "address",
          "name": "",
          "type": "address"
        }
      ],
      "stateMutability": "view",
      "type": "function"
    },
    {
      "inputs": [
        {
          "internalType": "address",
          "name": "owner",
          "type": "address"
        },
        {
          "internalType": "address",
          "name": "operator",
          "type": "address"
        }
      ],
      "name": "isApprovedForAll",
      "outputs": [
        {
          "internalType": "bool",
          "name": "",
          "type": "bool"
        }
      ],
      "stateMutability": "view",
      "type": "function"
    },
    {
      "inputs": [
        {
          "internalType": "address",
          "name": "to",
          "type": "address"
        },
        {
          "internalType": "string",
          "name": "uri",
          "type": "string"
        }
      ],
      "name": "mint",
      "outputs": [
        {
          "internalType": "uint256",
          "name": "",
          "type": "uint256"
        }
      ],
      "stateMutability": "nonpayable",
      "type": "function"
    },
    {
      "inputs": [],
      "name": "name",
      "outputs": [
        {
          "internalType": "string",
          "name": "",
          "type": "string"
        }
      ],
      "stateMutability": "view",
      "type": "function"
    },
    {
      "inputs": [],
      "name": "owner",
      "outputs": [
        {
          "internalType": "address",
          "name": "",
          "type": "address"
        }
      ],
      "stateMutability": "view",
      "type": "function"
    },
    {
      "inputs": [
        {
          "internalType": "uint256",
          "name": "tokenId",
          "type": "uint256"
        }
      ],
      "name": "ownerOf",
      "outputs": [
        {
          "internalType": "address",
          "name": "",
          "type": "address"
        }
      ],
      "stateMutability": "view",
      "type": "function"
    },
    {
      "inputs": [],
      "name": "renounceOwnership",
      "outputs": [],
      "stateMutability": "nonpayable",
      "type": "function"
    },
    {
      "inputs": [
        {
          "internalType": "address",
          "name": "from",
          "type": "address"
        },
        {
          "internalType": "address",
          "name": "to",
          "type": "address"
        },
        {
          "internalType": "uint256",
          "name": "tokenId",
          "type": "uint256"
        }
      ],
      "name": "safeTransferFrom",
      "outputs": [],
      "stateMutability": "nonpayable",
      "type": "function"
    },
    {
      "inputs": [
        {
          "internalType": "address",
          "name": "from",
          "type": "address"
        },
        {
          "internalType": "address",
          "name": "to",
          "type": "address"
        },
        {
          "internalType": "uint256",
          "name": "tokenId",
          "type": "uint256"
        },
        {
          "internalType": "bytes",
          "name": "data",
          "type": "bytes"
        }
      ],
      "name": "safeTransferFrom",
      "outputs": [],
      "stateMutability": "nonpayable",
      "type": "function"
    },
    {
      "inputs": [
        {
          "internalType": "address",
          "name": "operator",
          "type": "address"
        },
        {
          "internalType": "bool",
          "name": "approved",
          "type": "bool"
        }
      ],
      "name": "setApprovalForAll",
      "outputs": [],
      "stateMutability": "nonpayable",
      "type": "function"
    },
    {
      "inputs": [
        {
          "internalType": "bytes4",
          "name": "interfaceId",
          "type": "bytes4"
        }
      ],
      "name": "supportsInterface",
      "outputs": [
        {
          "internalType": "bool",
          "name": "",
          "type": "bool"
        }
      ],
      "stateMutability": "view",
      "type": "function"
    },
    {
      "inputs": [],
      "name": "symbol",
      "outputs": [
        {
          "internalType": "string",
          "name": "",
          "type": "string"
        }
      ],
      "stateMutability": "view",
      "type": "function"
    },
    {
      "inputs": [
        {
          "internalType": "uint256",
          "name": "tokenId",
          "type": "uint256"
        }
      ],
      "name": "tokenURI",
      "outputs": [
        {
          "internalType": "string",
          "name": "",
          "type": "string"
        }
      ],
      "stateMutability": "view",
      "type": "function"
    },
    {
      "inputs": [],
      "name": "totalSupply",
      "outputs": [
        {
          "internalType": "uint256",
          "name": "",
          "type": "uint256"
        }
      ],
      "stateMutability": "view",
      "type": "function"
    },
    {
      "inputs": [
        {
          "internalType": "address",
          "name": "from",
          "type": "address"
        },
        {
          "internalType": "address",
          "name": "to",
          "type": "address"
        },
        {
          "internalType": "uint256",
          "name": "tokenId",
          "type": "uint256"
        }
      ],
      "name": "transferFrom",
      "outputs": [],
      "stateMutability": "nonpayable",
      "type": "function"
    },
    {
      "inputs": [
        {
          "internalType": "address",
          "name": "newOwner",
          "type": "address"
        }
      ],
      "name": "transferOwnership",
      "outputs": [],
      "stateMutability": "nonpayable",
      "type": "function"
    }
  ],
  "bytecode": "0x60806040523480156200001157600080fd5b50336040518060400160405280600e81526020016d564942452041727469666163747360901b815250604051806040016040528060048152602001635649424560e01b8152508160009081620000689190620001b2565b506001620000778282620001b2565b5050506001600160a01b038116620000a957604051631e4fbdf760e01b81526000600482015260240160405180910390fd5b620000b481620000bb565b506200027e565b600780546001600160a01b038381166001600160a01b0319831681179093556040519116919082907f8be0079c531659141344cd1fd0a4f28419497f9722a3daafe3b4186f6b6457e090600090a35050565b634e487b7160e01b600052604160045260246000fd5b600181811c908216806200013857607f821691505b6020821081036200015957634e487b7160e01b600052602260045260246000fd5b50919050565b601f821115620001ad57600081815260208120601f850160051c81016020861015620001885750805b601f850160051c820191505b81811015620001a95782815560010162000194565b5050505b505050565b81516001600160401b03811115620001ce57620001ce6200010d565b620001e681620001df845462000123565b846200015f565b602080601f8311600181146200021e5760008415620002055750858301515b600019600386901b1c1916600185901b178555620001a9565b600085815260208120601f198616915b828110156200024f578886015182559484019460019091019084016200022e565b50858210156200026e5787850151600019600388901b60f8161c191681555b5050505050600190811b01905550565b6116c1806200028e6000396000f3fe608060405234801561001057600080fd5b50600436106101215760003560e01c8063715018a6116100ad578063c87b56dd11610071578063c87b56dd14610248578063d0def5211461025b578063e985e9c51461026e578063f2f18baa14610281578063f2fde38b146102a157600080fd5b8063715018a6146102015780638da5cb5b1461020957806395d89b411461021a578063a22cb46514610222578063b88d4fde1461023557600080fd5b806318160ddd116100f457806318160ddd146101a357806323b872dd146101b557806342842e0e146101c85780636352211e146101db57806370a08231146101ee57600080fd5b806301ffc9a71461012657806306fdde031461014e578063081812fc14610163578063095ea7b31461018e575b600080fd5b61013961013436600461103d565b6102b4565b60405190151581526020015b60405180910390f35b6101566102c5565b60405161014591906110aa565b6101766101713660046110bd565b610357565b6040516001600160a01b039091168152602001610145565b6101a161019c3660046110f2565b610380565b005b6008545b604051908152602001610145565b6101a16101c336600461111c565b61038f565b6101a16101d636600461111c565b61041f565b6101766101e93660046110bd565b61043f565b6101a76101fc366004611158565b61044a565b6101a1610492565b6007546001600160a01b0316610176565b6101566104a6565b6101a1610230366004611173565b6104b5565b6101a161024336600461124e565b6104c0565b6101566102563660046110bd565b6104d8565b6101a76102693660046112ea565b6104e3565b61013961027c366004611338565b610561565b61029461028f36600461136b565b61058f565b6040516101459190611441565b6101a16102af366004611158565b610647565b60006102bf82610685565b92915050565b6060600080546102d490611485565b80601f016020809104026020016040519081016040528092919081815260200182805461030090611485565b801561034d5780601f106103225761010080835404028352916020019161034d565b820191906000526020600020905b81548152906001019060200180831161033057829003601f168201915b5050505050905090565b6000610362826106aa565b506000828152600460205260409020546001600160a01b03166102bf565b61038b8282336106e3565b5050565b6001600160a01b0382166103be57604051633250574960e11b8152600060048201526024015b60405180910390fd5b60006103cb8383336106f0565b9050836001600160a01b0316816001600160a01b031614610419576040516364283d7b60e01b81526001600160a01b03808616600483015260248201849052821660448201526064016103b5565b50505050565b61043a838383604051806020016040528060008152506104c0565b505050565b60006102bf826106aa565b60006001600160a01b038216610476576040516322718ad960e21b8152600060048201526024016103b5565b506001600160a01b031660009081526003602052604090205490565b61049a6107e9565b6104a46000610816565b565b6060600180546102d490611485565b61038b338383610868565b6104cb84848461038f565b6104193385858585610907565b60606102bf82610a32565b60006104ed6107e9565b60088054600091826104fe836114bf565b91905055905061050e8482610b43565b6105188184610b5d565b836001600160a01b0316817fc969460495bddc9a00389f0d0bab6a3cdfb2781afa318847d4f9fc06872bfa078560405161055291906110aa565b60405180910390a39392505050565b6001600160a01b03918216600090815260056020908152604080832093909416825291909152205460ff1690565b60606105996107e9565b6000825167ffffffffffffffff8111156105b5576105b56111af565b6040519080825280602002602001820160405280156105de578160200160208202803683370190505b50905060005b835181101561063f5761061085858381518110610603576106036114e6565b60200260200101516104e3565b828281518110610622576106226114e6565b602090810291909101015280610637816114bf565b9150506105e4565b509392505050565b61064f6107e9565b6001600160a01b03811661067957604051631e4fbdf760e01b8152600060048201526024016103b5565b61068281610816565b50565b60006001600160e01b03198216632483248360e11b14806102bf57506102bf82610bad565b6000818152600260205260408120546001600160a01b0316806102bf57604051637e27328960e01b8152600481018490526024016103b5565b61043a8383836001610bfd565b6000828152600260205260408120546001600160a01b039081169083161561071d5761071d818486610d03565b6001600160a01b0381161561075b5761073a600085600080610bfd565b6001600160a01b038116600090815260036020526040902080546000190190555b6001600160a01b0385161561078a576001600160a01b0385166000908152600360205260409020805460010190555b60008481526002602052604080822080546001600160a01b0319166001600160a01b0389811691821790925591518793918516917fddf252ad1be2c89b69c2b068fc378daa952ba7f163c4a11628f55a4df523b3ef91a4949350505050565b6007546001600160a01b031633146104a45760405163118cdaa760e01b81523360048201526024016103b5565b600780546001600160a01b038381166001600160a01b0319831681179093556040519116919082907f8be0079c531659141344cd1fd0a4f28419497f9722a3daafe3b4186f6b6457e090600090a35050565b6001600160a01b03821661089a57604051630b61174360e31b81526001600160a01b03831660048201526024016103b5565b6001600160a01b03838116600081815260056020908152604080832094871680845294825291829020805460ff191686151590811790915591519182527f17307eab39ab6107e8899845ad3d59bd9653f200f220920489ca2b5937696c31910160405180910390a3505050565b6001600160a01b0383163b15610a2b57604051630a85bd0160e11b81526001600160a01b0384169063150b7a02906109499088908890879087906004016114fc565b6020604051808303816000875af1925050508015610984575060408051601f3d908101601f1916820190925261098191810190611539565b60015b6109ed573d8080156109b2576040519150601f19603f3d011682016040523d82523d6000602084013e6109b7565b606091505b5080516000036109e557604051633250574960e11b81526001600160a01b03851660048201526024016103b5565b805160208201fd5b6001600160e01b03198116630a85bd0160e11b14610a2957604051633250574960e11b81526001600160a01b03851660048201526024016103b5565b505b5050505050565b6060610a3d826106aa565b5060008281526006602052604081208054610a5790611485565b80601f0160208091040260200160405190810160405280929190818152602001828054610a8390611485565b8015610ad05780601f10610aa557610100808354040283529160200191610ad0565b820191906000526020600020905b815481529060010190602001808311610ab357829003601f168201915b505050505090506000610aee60408051602081019091526000815290565b90508051600003610b00575092915050565b815115610b32578082604051602001610b1a929190611556565b60405160208183030381529060405292505050919050565b610b3b84610d67565b949350505050565b61038b828260405180602001604052806000815250610ddc565b6000828152600660205260409020610b7582826115cb565b506040518281527ff8e1a15aba9398e019f0b49df1a4fde98ee17ae345cb5f6b5e2c27f5033e8ce79060200160405180910390a15050565b60006001600160e01b031982166380ac58cd60e01b1480610bde57506001600160e01b03198216635b5e139f60e01b145b806102bf57506301ffc9a760e01b6001600160e01b03198316146102bf565b8080610c1157506001600160a01b03821615155b15610cd3576000610c21846106aa565b90506001600160a01b03831615801590610c4d5750826001600160a01b0316816001600160a01b031614155b8015610c605750610c5e8184610561565b155b15610c895760405163a9fbf51f60e01b81526001600160a01b03841660048201526024016103b5565b8115610cd15783856001600160a01b0316826001600160a01b03167f8c5be1e5ebec7d5bd14f71427d1e84f3dd0314c0f7b2291e5b200ac8c7c3b92560405160405180910390a45b505b5050600090815260046020526040902080546001600160a01b0319166001600160a01b0392909216919091179055565b610d0e838383610df4565b61043a576001600160a01b038316610d3c57604051637e27328960e01b8152600481018290526024016103b5565b60405163177e802f60e01b81526001600160a01b0383166004820152602481018290526044016103b5565b6060610d72826106aa565b506000610d8a60408051602081019091526000815290565b90506000815111610daa5760405180602001604052806000815250610dd5565b80610db484610e57565b604051602001610dc5929190611556565b6040516020818303038152906040525b9392505050565b610de68383610eea565b61043a336000858585610907565b60006001600160a01b03831615801590610b3b5750826001600160a01b0316846001600160a01b03161480610e2e5750610e2e8484610561565b80610b3b5750506000908152600460205260409020546001600160a01b03908116911614919050565b60606000610e6483610f4f565b600101905060008167ffffffffffffffff811115610e8457610e846111af565b6040519080825280601f01601f191660200182016040528015610eae576020820181803683370190505b5090508181016020015b600019016f181899199a1a9b1b9c1cb0b131b232b360811b600a86061a8153600a8504945084610eb857509392505050565b6001600160a01b038216610f1457604051633250574960e11b8152600060048201526024016103b5565b6000610f22838360006106f0565b90506001600160a01b0381161561043a576040516339e3563760e11b8152600060048201526024016103b5565b60008072184f03e93ff9f4daa797ed6e38ed64bf6a1f0160401b8310610f8e5772184f03e93ff9f4daa797ed6e38ed64bf6a1f0160401b830492506040015b6d04ee2d6d415b85acef81000000008310610fba576d04ee2d6d415b85acef8100000000830492506020015b662386f26fc100008310610fd857662386f26fc10000830492506010015b6305f5e1008310610ff0576305f5e100830492506008015b612710831061100457612710830492506004015b60648310611016576064830492506002015b600a83106102bf5760010192915050565b6001600160e01b03198116811461068257600080fd5b60006020828403121561104f57600080fd5b8135610dd581611027565b60005b8381101561107557818101518382015260200161105d565b50506000910152565b6000815180845261109681602086016020860161105a565b601f01601f19169290920160200192915050565b602081526000610dd5602083018461107e565b6000602082840312156110cf57600080fd5b5035919050565b80356001600160a01b03811681146110ed57600080fd5b919050565b6000806040838503121561110557600080fd5b61110e836110d6565b946020939093013593505050565b60008060006060848603121561113157600080fd5b61113a846110d6565b9250611148602085016110d6565b9150604084013590509250925092565b60006020828403121561116a57600080fd5b610dd5826110d6565b6000806040838503121561118657600080fd5b61118f836110d6565b9150602083013580151581146111a457600080fd5b809150509250929050565b634e487b7160e01b600052604160045260246000fd5b604051601f8201601f1916810167ffffffffffffffff811182821017156111ee576111ee6111af565b604052919050565b600067ffffffffffffffff831115611210576112106111af565b611223601f8401601f19166020016111c5565b905082815283838301111561123757600080fd5b828260208301376000602084830101529392505050565b6000806000806080858703121561126457600080fd5b61126d856110d6565b935061127b602086016110d6565b925060408501359150606085013567ffffffffffffffff81111561129e57600080fd5b8501601f810187136112af57600080fd5b6112be878235602084016111f6565b91505092959194509250565b600082601f8301126112db57600080fd5b610dd5838335602085016111f6565b600080604083850312156112fd57600080fd5b611306836110d6565b9150602083013567ffffffffffffffff81111561132257600080fd5b61132e858286016112ca565b9150509250929050565b6000806040838503121561134b57600080fd5b611354836110d6565b9150611362602084016110d6565b90509250929050565b6000806040838503121561137e57600080fd5b611387836110d6565b915060208084013567ffffffffffffffff808211156113a557600080fd5b818601915086601f8301126113b957600080fd5b8135818111156113cb576113cb6111af565b8060051b6113da8582016111c5565b918252838101850191858101908a8411156113f457600080fd5b86860192505b83831015611430578235858111156114125760008081fd5b6114208c89838a01016112ca565b83525091860191908601906113fa565b809750505050505050509250929050565b6020808252825182820181905260009190848201906040850190845b818110156114795783518352928401929184019160010161145d565b50909695505050505050565b600181811c9082168061149957607f821691505b6020821081036114b957634e487b7160e01b600052602260045260246000fd5b50919050565b6000600182016114df57634e487b7160e01b600052601160045260246000fd5b5060010190565b634e487b7160e01b600052603260045260246000fd5b6001600160a01b038581168252841660208201526040810183905260806060820181905260009061152f9083018461107e565b9695505050505050565b60006020828403121561154b57600080fd5b8151610dd581611027565b6000835161156881846020880161105a565b83519083019061157c81836020880161105a565b01949350505050565b601f82111561043a57600081815260208120601f850160051c810160208610156115ac5750805b601f850160051c820191505b81811015610a29578281556001016115b8565b815167ffffffffffffffff8111156115e5576115e56111af565b6115f9816115f38454611485565b84611585565b602080601f83116001811461162e57600084156116165750858301515b600019600386901b1c1916600185901b178555610a29565b600085815260208120601f198616915b8281101561165d5788860151825594840194600190910190840161163e565b508582101561167b5787850151600019600388901b60f8161c191681555b5050505050600190811b0190555056fea2646970667358221220e47e1f9c5105b4658afdc9760f7c54fe7a08c7b5e67765699ea875407c22416d64736f6c63430008140033",
  "linkReferences": {},
  "deployedLinkReferences": {}
}